{
  "address": "0x68110A20Cb94E911fCa0e55301BBec6EB8819C27",
  "abi": [
    {
      "anonymous": false,
      "inputs": [
        {
          "indexed": true,
          "internalType": "address",
          "name": "processAddress",
          "type": "address"
        },
        {
          "indexed": true,
          "internalType": "address",
          "name": "creator",
          "type": "address"
        },
        {
          "indexed": false,
          "internalType": "string",
          "name": "name",
          "type": "string"
        },
        {
          "indexed": false,
          "internalType": "string",
          "name": "category",
          "type": "string"
        },
        {
          "indexed": false,
          "internalType": "uint256",
          "name": "version",
          "type": "uint256"
        }
      ],
      "name": "ProcessDeployed",
      "type": "event"
    },
    {
      "inputs": [
        {
          "internalType": "string",
          "name": "_name",
          "type": "string"
        },
        {
          "internalType": "string",
          "name": "_description",
          "type": "string"
        },
        {
          "internalType": "string",
          "name": "_category",
          "type": "string"
        },
        {
          "components": [
            {
              "internalType": "string",
              "name": "name",
              "type": "string"
            },
            {
              "internalType": "string",
              "name": "description",
              "type": "string"
            },
            {
              "internalType": "string",
              "name": "actionType",
              "type": "string"
            },
            {
              "internalType": "string",
              "name": "config",
              "type": "string"
            }
          ],
          "internalType": "struct ProcessTemplate.Step[]",
          "name": "_steps",
          "type": "tuple[]"
        }
      ],
      "name": "deployProcess",
      "outputs": [
        {
          "internalType": "address",
          "name": "",
          "type": "address"
        }
      ],
      "stateMutability": "nonpayable",
      "type": "function"
    },
    {
      "inputs": [
        {
          "internalType": "uint256",
          "name": "",
          "type": "uint256"
        }
      ],
      "name": "deployedProcesses",
      "outputs": [
        {
          "internalType": "address",
          "name": "",
          "type": "address"
        }
      ],
      "stateMutability": "view",
      "type": "function"
    },
    {
      "inputs": [
        {
          "internalType": "uint256",
          "name": "index",
          "type": "uint256"
        }
      ],
      "name": "getDeployedProcess",
      "outputs": [
        {
          "internalType": "address",
          "name": "",
          "type": "address"
        }
      ],
      "stateMutability": "view",
      "type": "function"
    },
    {
      "inputs": [],
      "name": "getDeployedProcessesCount",
      "outputs": [
        {
          "internalType": "uint256",
          "name": "",
          "type": "uint256"
        }
      ],
      "stateMutability": "view",
      "type": "function"
    }
  ],
  "transactionHash": "0xb462a452ee6dc7f945ca164fab7f56bd1b4e28512fd0d070a1940f7d5540b25f",
  "args": [],
  "numDeployments": 1,
  "solcInputHash": "27163a31d6cd5a7bad0ec7682edf556a",
  "bytecode": "0x60808060405234610016576128b6908161001c8239f35b600080fdfe608060405260043610156200001357600080fd5b60003560e01c80634c6172e814620004cd578063825d5fa014620004ad578063974b49cc146200047257639911e1f9146200004d57600080fd5b346200046d5760803660031901126200046d576004356001600160401b0381116200046d576200008290369060040162000567565b6024356001600160401b0381116200046d57620000a490369060040162000567565b6044356001600160401b0381116200046d57620000c690369060040162000567565b906001600160401b03606435116200046d573660236064350112156200046d5760643560040135906001600160401b0382116200029a578160051b9060206200011181840162000541565b80948152018092366024826064350101116200046d57602460643501915b6024826064350101831062000340575050506040519261228091828501928584106001600160401b038511176200029a57620001968695949392620001a59262000601883960c085526200018760c086018b620005be565b908582036020870152620005be565b838103604085015287620005be565b916001606082015233608082015260a081840391015251808252602082019160208260051b82010193926000915b838310620002bc57505050505003906000f0918215620002b057600054926001600160a01b039081169290680100000000000000008510156200029a576200028484927fd3fedeb41130501b4968975927e69438e86ac275626bf2beb7144241f9e72699926200024c88600160209a01600055620004f6565b819291549060031b9187831b921b19161790556200027660405195606087526060870190620005be565b9085820388870152620005be565b92600160408201528033940390a3604051908152f35b634e487b7160e01b600052604160045260246000fd5b6040513d6000823e3d90fd5b9193955091936020806200032d600193601f1986820301875289519060606200031b62000308620002f78551608086526080860190620005be565b8786015185820389870152620005be565b60408501518482036040860152620005be565b920151906060818403910152620005be565b97019301930190928695949293620001d3565b82356001600160401b0381116200046d5760806064358201360360231901126200046d57604051908160808101106001600160401b036080840111176200029a57608082016040526001600160401b03602482606435010135116200046d57620003b7366024606435840181810135010162000567565b82526001600160401b03604482606435010135116200046d57620003e936606435830160448101350160240162000567565b60208301526001600160401b036064828135010135116200046d576200041d36606480358401908101350160240162000567565b60408301526001600160401b03608482606435010135116200046d5760249260209283926200045a90369060643501608481013501870162000567565b606082015281520193019290506200012f565b600080fd5b346200046d5760203660031901126200046d57602062000494600435620004f6565b905460405160039290921b1c6001600160a01b03168152f35b346200046d5760003660031901126200046d576020600054604051908152f35b346200046d5760203660031901126200046d576004356000548110156200046d57620004946020915b9060009182548110156200052d578280527f290decd9548b62a8d60345a988386fc84ba6bc95484008f6362f93160ef3e563019190565b634e487b7160e01b83526032600452602483fd5b6040519190601f01601f191682016001600160401b038111838210176200029a57604052565b81601f820112156200046d578035906001600160401b0382116200029a576200059a601f8301601f191660200162000541565b92828452602083830101116200046d57816000926020809301838601378301015290565b919082519283825260005b848110620005eb575050826000602080949584010152601f8019910116010190565b602081830181015184830182015201620005c956fe60806040523462000d025762002280803803806200001d8162000d1c565b92833960c082828101031262000d025781516001600160401b03811162000d02576200004f9082840190840162000d42565b60208301519092906001600160401b03811162000d0257620000779083830190830162000d42565b60408201519093906001600160401b03811162000d02576200009f9084840190840162000d42565b9360608301519160808401519360018060a01b038516850362000d025760a08101516001600160401b03811162000d0257868201601f82840101121562000d025781810151966001600160401b03881162000615578760051b9160206200010881850162000d1c565b809a8152019082850160208583880101011162000d0257602081860101915b6020858388010101831062000bf85750508451949350506001600160401b03841191506200061590505760005490600182811c9216801562000bed575b6020831014620005f45781601f84931162000b8a575b50602090601f831160011462000b0e5760009262000b02575b50508160011b916000199060031b1c1916176000555b8051906001600160401b038211620006155760015490600182811c9216801562000af7575b6020831014620005f45781601f84931162000a93575b50602090601f831160011462000a195760009262000a0d575b50508160011b916000199060031b1c1916176001555b83516001600160401b0381116200061557600254600181811c9116801562000a02575b6020821014620005f457601f811162000998575b506020601f8211600114620009285781929394956000926200091c575b50508160011b916000199060031b1c1916176002555b600355600480546001600160a01b0319166001600160a01b039290921691909117905560005b81518110156200090c5760208160051b83010151600554906801000000000000000082101562000615576001820180600555821015620008f6576005600052805180517f036b6384b5eca791c62761152d0c79bb0604c104a5fb6f4eb0703f3154bb3db092916001600160401b03821162000615578460021b84015490600182811c92168015620008eb575b6020831014620005f45781601f8493116200088e575b50602090601f8311600114620008135760009262000807575b50508160011b916000199060031b1c1916178360021b8301555b60208101518051906001600160401b038211620006155760018560021b8501015490600182811c92168015620007fc575b6020831014620005f45781601f8493116200079f575b50602090601f83116001146200071e5760009262000712575b50508160011b916000199060031b1c19161760018460021b840101555b60408101518051906001600160401b0382116200061557600285811b85010154600181811c9116801562000707575b6020821014620005f457601f8111620006b7575b50602090601f831160011462000637576060939291600091836200062b575b50508160011b916000199060031b1c191617600285811b850101555b01518051906001600160401b038211620006155760038460021b84010154600181811c911680156200060a575b6020821014620005f457601f81116200059f575b50602090601f8311600114620005215760039392916000918362000515575b50508160011b9160001990851b1c1916179260021b0101555b6000198114620004ff57600101620002a3565b634e487b7160e01b600052601160045260246000fd5b015190503880620004d3565b9060038560021b85010160005260206000209160005b601f198516811062000586575091839160019360039695601f198116106200056d575b505050811b019260021b010155620004ec565b015160001983871b60f8161c191690553880806200055a565b9192602060018192868501518155019401920162000537565b60038560021b8501016000526020600020601f840160051c81019160208510620005e9575b601f0160051c01905b818110620005dc5750620004b4565b60008155600101620005cd565b9091508190620005c4565b634e487b7160e01b600052602260045260246000fd5b90607f1690620004a0565b634e487b7160e01b600052604160045260246000fd5b01519050388062000457565b90600286811b86010160005260206000209160005b601f19851681106200069e575091839160019360609695601f1981161062000684575b505050811b01600285811b8501015562000473565b015160001960f88460031b161c191690553880806200066f565b919260206001819286850151815501940192016200064c565b600286811b8601016000526020600020601f840160051c810160208510620006ff575b601f830160051c82018110620006f257505062000438565b60008155600101620006da565b5080620006da565b90607f169062000424565b015190503880620003d8565b925060018660021b8601016000526020600020906000935b601f198416851062000783576001945083601f1981161062000769575b505050811b0160018460021b84010155620003f5565b015160001960f88460031b161c1916905538808062000753565b8181015183556020948501946001909301929091019062000736565b90915060018660021b8601016000526020600020601f840160051c810160208510620007f4575b90849392915b601f830160051c82018110620007e4575050620003bf565b60008155859450600101620007cc565b5080620007c6565b91607f1691620003a9565b0151905038806200035e565b92508560021b85016000526020600020906000935b601f198416851062000872576001945083601f1981161062000858575b505050811b018360021b83015562000378565b015160001960f88460031b161c1916905538808062000845565b8181015183556020948501946001909301929091019062000828565b9091508560021b85016000526020600020601f840160051c81019160208510620008e0575b90601f859493920160051c01905b818110620008d0575062000345565b60008155849350600101620008c1565b9091508190620008b3565b91607f16916200032f565b634e487b7160e01b600052603260045260246000fd5b60405161148b908162000db58239f35b01519050388062000267565b600260005260206000209060005b601f19841681106200097f575060019394959683601f1981161062000965575b505050811b016002556200027d565b015160001960f88460031b161c1916905538808062000956565b9091602060018192858b01518155019301910162000936565b60026000527f405787fa12a823e0f2b7631cc41b3ba8828b3321ca811111fa75cd3aa3bb5ace601f830160051c81019160208410620009f7575b601f0160051c01905b818110620009ea57506200024a565b60008155600101620009db565b9091508190620009d2565b90607f169062000236565b015190503880620001fd565b60016000908152600080516020620022608339815191529350601f198516905b81811062000a7a575090846001959493921062000a60575b505050811b0160015562000213565b015160001960f88460031b161c1916905538808062000a51565b9293602060018192878601518155019501930162000a39565b600160005290915060008051602062002260833981519152601f840160051c8101916020851062000aec575b90601f859493920160051c01905b81811062000adc5750620001e4565b6000815584935060010162000acd565b909150819062000abf565b91607f1691620001ce565b01519050388062000193565b600080805293506000805160206200224083398151915291905b601f198416851062000b6e576001945083601f1981161062000b54575b505050811b01600055620001a9565b015160001960f88460031b161c1916905538808062000b45565b8181015183556020948501946001909301929091019062000b28565b6000805290915060008051602062002240833981519152601f840160051c8101916020851062000be2575b90601f859493920160051c01905b81811062000bd257506200017a565b6000815584935060010162000bc3565b909150819062000bb5565b91607f169162000164565b82516001600160401b03811162000d025782870101906080601f1983878a0103011262000d025760405191608083016001600160401b0381118482101762000d075760405260208101516001600160401b03811162000d025762000c65906020888b019184010162000d42565b835260408101516001600160401b03811162000d025762000c8f906020888b019184010162000d42565b602084015260608101516001600160401b03811162000d025762000cbc906020888b019184010162000d42565b60408401526080810151916001600160401b03831162000d025760209362000cef8594938580958b8e0192010162000d42565b6060820152815201930192905062000127565b600080fd5b60246000634e487b7160e01b81526041600452fd5b6040519190601f01601f191682016001600160401b038111838210176200061557604052565b919080601f8401121562000d025782516001600160401b038111620006155760209062000d78601f8201601f1916830162000d1c565b9281845282828701011162000d025760005b81811062000da057508260009394955001015290565b858101830151848201840152820162000d8a56fe608060408181526004918236101561001657600080fd5b600092833560e01c91826302d05d3f146107255750816306fdde031461065a57816347f2ce831461055f57816354fd4d50146105405781636fd63351146105215781637217e0b91461047f5781637284e416146103b35781637874888a146102c5578163bb855f391461026c578163ef430aa61461014e575063fceaae171461009e57600080fd5b3461014a57602080600319360112610146576001600160a01b0392836100c26108fe565b1681526006825282812091835190818185549182815201908195855282852090855b81811061013057505050826100fa91038361077b565b8451948186019282875251809352850193925b82811061011a5785850386f35b835187168552938101939281019260010161010d565b82548a16845292840192600192830192016100e4565b8280fd5b5080fd5b8284346102695780600319360112610269578151918160025492600184811c9181861695861561025f575b602096878510811461024c578899509688969785829a5291826000146102255750506001146101c9575b5050506101c592916101b691038561077b565b5192828493845283019061086e565b0390f35b9190869350600283527f405787fa12a823e0f2b7631cc41b3ba8828b3321ca811111fa75cd3aa3bb5ace5b82841061020d57505050820101816101b66101c56101a3565b8054848a0186015288955087949093019281016101f4565b60ff19168782015293151560051b860190930193508492506101b691506101c590506101a3565b634e487b7160e01b835260228a52602483fd5b92607f1692610179565b80fd5b50503461014a578060031936011261014a576102866108fe565b6001600160a01b03908116835260066020528183208054602435949085101561026957506020936102b691610919565b92905490519260031b1c168152f35b82843461026957602036600319011261026957506101c561037d9261030a8351916102ef83610749565b606080848180965281602082015281888201520152356108ae565b50926103a281519461031b86610749565b6103248161079d565b86526103326001820161079d565b936020870194855261039161035b600361034e6002860161079d565b94878b019586520161079d565b958289019687528551998a9960208b5251608060208c015260a08b019061086e565b9051601f1996878b840301908b015261086e565b91519084888403019088015261086e565b91519084830301608085015261086e565b8284346102695780600319360112610269578151918160019283549384811c91818616958615610475575b602096878510811461024c578899509688969785829a52918260001461022557505060011461041a575050506101c592916101b691038561077b565b91908693508083527fb10e2d527612073b26eecdfd717e6a320cf44b4afac2b0732d9fcbe2b7fa0cf65b82841061045d57505050820101816101b66101c56101a3565b8054848a018601528895508794909301928101610444565b92607f16926103de565b90503461014657602036600319011261014657359160055483101561026957506101c56104ae6104f8936108ae565b506105136104bb8261079d565b936104c86001840161079d565b926105066104e460036104dd6002850161079d565b930161079d565b94835198899860808a5260808a019061086e565b9088820360208a015261086e565b918683039087015261086e565b90838203606085015261086e565b50503461014a578160031936011261014a576020906005549051908152f35b50503461014a578160031936011261014a576020906003549051908152f35b83833461014a578160031936011261014a578051610b248082019082821067ffffffffffffffff8311176106475783918391610932833930815233602082015203019083f090811561063c57338352600660205280832080546001600160a01b039384169391680100000000000000008210156106295760209650906105ea91600182018155610919565b819291549060031b9185831b921b19161790555191817f543b35b6b9f1ac11b5f0a029c292d01d577f993f2778d5ffc579ea3136182e8b339280a38152f35b634e487b7160e01b865260418752602486fd5b51913d9150823e3d90fd5b634e487b7160e01b855260418652602485fd5b82843461026957806003193601126102695781519181825492600184811c9181861695861561071b575b602096878510811461024c578899509688969785829a5291826000146102255750506001146106c0575050506101c592916101b691038561077b565b91908693508280527f290decd9548b62a8d60345a988386fc84ba6bc95484008f6362f93160ef3e5635b82841061070357505050820101816101b66101c56101a3565b8054848a0186015288955087949093019281016106ea565b92607f1692610684565b849134610146578260031936011261014657546001600160a01b0316815260209150f35b6080810190811067ffffffffffffffff82111761076557604052565b634e487b7160e01b600052604160045260246000fd5b90601f8019910116810190811067ffffffffffffffff82111761076557604052565b90604051906000835490600182811c90808416968715610864575b6020948584108914610850578798848997989952908160001461082e57506001146107ef575b5050506107ed9250038361077b565b565b600090815285812095935091905b8183106108165750506107ed93508201013880806107de565b855488840185015294850194879450918301916107fd565b925050506107ed94925060ff191682840152151560051b8201013880806107de565b634e487b7160e01b85526022600452602485fd5b91607f16916107b8565b919082519283825260005b84811061089a575050826000602080949584010152601f8019910116010190565b602081830181015184830182015201610879565b6005548110156108e857600560005260021b7f036b6384b5eca791c62761152d0c79bb0604c104a5fb6f4eb0703f3154bb3db00190600090565b634e487b7160e01b600052603260045260246000fd5b600435906001600160a01b038216820361091457565b600080fd5b80548210156108e8576000526020600020019060009056fe60803461008c57601f610b2438819003918201601f19168301916001600160401b0383118484101761009157808492604094855283398101031261008c57610052602061004b836100a7565b92016100a7565b60018060a01b03908160018060a01b03199316836000541617600055169060035416176003556000600155604051610a6890816100bc8239f35b600080fd5b634e487b7160e01b600052604160045260246000fd5b51906001600160a01b038216820361008c5756fe6040608081526004908136101561001557600080fd5b600091823560e01c8063214fb5fc14610563578063334f45ec146105445780635c39fcc11461051b5780636f2ddd93146104f3578063a5d926f61461026d578063a9e66fe6146101fb578063ac5b070a146101155763fa391c641461007957600080fd5b3461011157826003193601126101115760015483548351636fd6335160e01b81529193919260209184919082906001600160a01b03165afa9182156101075784926100cc575b5060209350519110158152f35b9091506020813d82116100ff575b816100e7602093836107e6565b810103126100fb57602093505190386100bf565b8380fd5b3d91506100da565b81513d86823e3d90fd5b8280fd5b5091346101f857602090816003193601126101f8578060608451610138816107b4565b828152828582015281868201520152833581526002825282812083519361015e856107b4565b81549260ff84169060038210156101e55750855260089290921c6001600160a01b03908116848601908152926101da9291600261019d600185016108b8565b93838901948552015494606088019586526101c2835198888a998a528901905161095e565b511690850152516080606085015260a0840190610981565b905160808301520390f35b634e487b7160e01b815260218852602490fd5b80fd5b503461011157602036600319011261011157918192358152600260205220805490610263600261022d600184016108b8565b920154916080855195856102458860ff81991661095e565b60081c6001600160a01b031660208701528501526080840190610981565b9060608301520390f35b509190346104ef5761027e36610808565b6001805484548451636fd6335160e01b81529294602093909291849082908a9082906001600160a01b03165afa80156104e55787906104b2575b6102c4915082106109c1565b8151906102d0826107b4565b858252838201338152838301908682526060840192428452895260028652848920935190600382101561049f5760ff855491610100600160a81b03905160081b169216906affffffffffffffffffffff60a81b161717835586830190519889519067ffffffffffffffff821161048c575061034b825461087e565b601f8111610446575b5085601f82116001146103df57908060029493928b9c6103cf9b9c926103d4575b5050600019600383901b1c1916908a1b1790555b519101557fc5ffe85c2e47dddab473aac515d45dc4818e809c52f6269baa69a1315056d9846103c78654948593519182918683523396830190610981565b0390a3610a0d565b905580f35b015190503880610375565b828a52868a2090601f1983168b5b81811061043157509183918b9c9d60029796956103cf9d9510610418575b505050811b019055610389565b015160001960f88460031b161c1916905538808061040b565b8d8301518455928b01929189019189016103ed565b828a52868a20601f830160051c810191888410610482575b601f0160051c019089905b828110610477575050610354565b8b8155018990610469565b909150819061045e565b634e487b7160e01b8a5260419052602489fd5b634e487b7160e01b8a5260218b5260248afd5b508381813d83116104de575b6104c881836107e6565b810103126104da576102c490516102b8565b8680fd5b503d6104be565b83513d89823e3d90fd5b5080fd5b5050346104ef57816003193601126104ef57905490516001600160a01b039091168152602090f35b5050346104ef57816003193601126104ef5760035490516001600160a01b039091168152602090f35b5050346104ef57816003193601126104ef576020906001549051908152f35b50919061056f36610808565b6001805484548451636fd6335160e01b81529294602093909291849082908a9082906001600160a01b03165afa80156104e5578790610785575b6105b5915082106109c1565b341561074f578151906105c7826107b4565b858252838201338152838301908682526060840192428452895260028652848920935190600382101561049f5760ff855491610100600160a81b03905160081b169216906affffffffffffffffffffff60a81b161717835586830190519889519067ffffffffffffffff821161048c5750610642825461087e565b601f8111610709575b5085601f82116001146106bc57908060029493928b9c6103cf9b9c926103d4575050600019600383901b1c1916908a1b179055519101557fc5ffe85c2e47dddab473aac515d45dc4818e809c52f6269baa69a1315056d9846103c78654948593519182918683523396830190610981565b828a52868a2090601f1983168b5b8181106106f457509183918b9c9d60029796956103cf9d951061041857505050811b019055610389565b8d8301518455928b01929189019189016106ca565b828a52868a20601f830160051c810191888410610745575b601f0160051c019089905b82811061073a57505061064b565b8b815501899061072c565b9091508190610721565b815162461bcd60e51b8152808801849052601060248201526f14185e5b595b9d081c995c5d5a5c995960821b6044820152606490fd5b508381813d83116107ad575b61079b81836107e6565b810103126104da576105b590516105a9565b503d610791565b6080810190811067ffffffffffffffff8211176107d057604052565b634e487b7160e01b600052604160045260246000fd5b90601f8019910116810190811067ffffffffffffffff8211176107d057604052565b60206003198201126108795767ffffffffffffffff60043581811161087957826023820112156108795780600401359182116107d05760405192610856601f8401601f1916602001856107e6565b828452602483830101116108795781600092602460209301838601378301015290565b600080fd5b90600182811c921680156108ae575b602083101461089857565b634e487b7160e01b600052602260045260246000fd5b91607f169161088d565b90604051918260008254926108cc8461087e565b90818452600194858116908160001461093b57506001146108f8575b50506108f6925003836107e6565b565b9093915060005260209081600020936000915b8183106109235750506108f6935082010138806108e8565b8554888401850152948501948794509183019161090b565b9150506108f694506020925060ff191682840152151560051b82010138806108e8565b90600382101561096b5752565b634e487b7160e01b600052602160045260246000fd5b919082519283825260005b8481106109ad575050826000602080949584010152601f8019910116010190565b60208183018101518483018201520161098c565b156109c857565b60405162461bcd60e51b815260206004820152601960248201527f50726f6365737320616c726561647920636f6d706c65746564000000000000006044820152606490fd5b6000198114610a1c5760010190565b634e487b7160e01b600052601160045260246000fdfea2646970667358221220f5f5e4746e0128342806e188e62e78e7098de66d3ec1b66fdfda56ebd069b5c564736f6c63430008140033a26469706673582212208fdd3bd9f6f889eea9a59010f3d8e4bfe869f471b7db975fd2ec39a5a502c00b64736f6c63430008140033290decd9548b62a8d60345a988386fc84ba6bc95484008f6362f93160ef3e563b10e2d527612073b26eecdfd717e6a320cf44b4afac2b0732d9fcbe2b7fa0cf6a26469706673582212203a054cb82e91add65bf7359c18b47cdee98090e00f730e7a6c315d876b5dcb8a64736f6c63430008140033",
  "devdoc": {
    "kind": "dev",
    "methods": {
      "deployProcess(string,string,string,(string,string,string,string)[])": {
        "params": {
          "_category": "Category of the process (e.g., \"Finance\", \"HR\", \"Legal\")",
          "_description": "Brief description",
          "_name": "Name of the process",
          "_steps": "Array of steps defining the process flow"
        }
      }
    },
    "title": "DeBuDeployer",
    "version": 1
  },
  "userdoc": {
    "kind": "user",
    "methods": {
      "deployProcess(string,string,string,(string,string,string,string)[])": {
        "notice": "Deploys a new Process Template"
      }
    },
    "notice": "Factory contract for deploying new Process Templates",
    "version": 1
  },
  "storageLayout": {
    "storage": [
      {
        "astId": 18,
        "contract": "contracts/DeBuDeployer.sol:DeBuDeployer",
        "label": "deployedProcesses",
        "offset": 0,
        "slot": "0",
        "type": "t_array(t_address)dyn_storage"
      }
    ],
    "types": {
      "t_address": {
        "encoding": "inplace",
        "label": "address",
        "numberOfBytes": "20"
      },
      "t_array(t_address)dyn_storage": {
        "base": "t_address",
        "encoding": "dynamic_array",
        "label": "address[]",
        "numberOfBytes": "32"
      }
    }
  }
}